:020000040000fa
:100000000200d2021003000000000002100b0000ea
:10001000000000021013000000000002101b00008e
:10002000000000021023000000000002102b00005e
:10003000000000021033000000000002103b00002e
:10004000000000021043000000000002104b0000fe
:10005000000000021053000000000002105b0000ce
:10006000000000021063000000000002106b00009e
:10007000000000021073000000000002107b00006e
:10008000000000021083000000000002108b00003e
:10009000000000020da7e490000278a4790180021c
:1000a000f0a3d8fcd9fa7aa57b009000e47809790e
:1000b000018015e493a3ad82ae838a828b83f0a383
:1000c000aa82ab838d828e83d8e9d9e71203b1125d
:1000d0000dc675d00075813f751c8075931e5392b7
:1000e000fe0200960010000000000200bb0102e7c3
:1000f00022c0925392fec082c08389828a83bb0051
:1001000003e08002e493d083d082d09222bb00151a
:10011000c0925392fec082c0838a838982f0d083ca
:10012000d082d09222bb0101f722cac0e0e6f309d7
:1001300008dafad0e0fa22cac0e0e0f208a3dafa5c
:10014000d0e0fa22600c08c6c313c618c613c6d581
:10015000e0f422700422600d18c6c333c608c6330b
:10016000c6d5e0f41822e4735392fed083d08225e2
:100170001cf8c51cc39824fbcef208e520f208e960
:10018000c0e07908e709f208defad0e0f9eff208fa
:10019000d0e0fed0e0f208eef208e473a81ce2fe24
:1001a00008e208f520e9c0e07908e208f709dffa7b
:1001b000e208ffd0e0f9e208c0e0e208c0e0881cf5
:1001c0005392fe22e584f208e585f222e208f584e6
:1001d000e2f585227403800474028000c9c0e0e562
:1001e0001cc399f51cc912012ad0e0f922740380be
:1001f00000c8c0e0e51cc398f51cc8120137d0e068
:10020000f82275bc0075bc005392fe22800f8a82d2
:100210008b835392fee0f5bda3aa82ab83ecf8ed8d
:10022000f9e824ff1ce934fffde84970e15392fe30
:1002300022e5bdf9e5bcfae9fb5392fe227400f514
:10024000d374022408f5d25392fe22a2afe433f80d
:10025000c2af5392fe906270e0a2e740f5e9c3336b
:10026000906272f0906270e0d2e0f0e0a2e740fbb2
:10027000e8a2e092af2274fa120168a2af33f8c28a
:10028000afed900002f0eca3f0a37462f0a37473de
:10029000f0a3e4f0e9a3f0a37412f0a37442f0eb2e
:1002a000906272f0ea906271f07400f5d575d40234
:1002b00075d601906270e0d2e1f0e0a2e740fbe881
:1002c000a2e092af7f0102019c5392fe906276e021
:1002d00075c6807480659e70fa9062707408f02212
:1002e000c008c0098908750900740b780812015309
:1002f000fae5094480fbd009d0085392fe2274f736
:10030000120168909093e064bf7063e5c7f508122e
:10031000020275c7007c937d007a007b9012020c6c
:100320007c5d7d077aa37b9012020c909094e01480
:10033000f5097f00801674032ffef91202e0eec467
:10034000540ff5c77c007d0812020c0fefc395090e
:1003500040e48508c71202318a088b09a808a90958
:10036000909095e0687003a3e069703e8038e5c71f
:10037000f5087fa57e02eef91202e08a828b83eef9
:10038000c4540ff5c778007908e02fffa3e824ffd5
:1003900018e934fff9e84970f00eeec3943040d606
:1003a0008508c7ef70047901800279007f0402019b
:1003b0009c5392fe900001e090001af0e59d5418c5
:1003c00064107005e0a2e04035e5c7f8790075c714
:1003d00000909000e0640270010988c7e9a2e05033
:1003e0001d1202fee960179000017403f00592905f
:1003f00000a5e0f582a3e0f58305921201661202e2
:10040000c9900001e4f012023d12069e1206ce12bf
:10041000071e80fb74f8120168151c151ca81c121d
:1004200001c490620ee0fee4f0906211e0ffa2e4ed
:1004300050197480f09000227407f01206276006ad
:10044000120643120166900022e4f0efa2e2500b84
:10045000906211e4f0900022f08060900022e0f8b9
:100460007402687042906216e0ff9000391201ed4c
:10047000eff97a207b621206da051c051c051c8f39
:100480000890003c12061c12060f2f1206321206ac
:100490002a6004744080027448906211f0e8496058
:1004a000030205fc0205df7406687006120643129b
:1004b0000166900022e06003020589efa2e040039c
:1004c0000205fc750831750900750a0078081201eb
:1004d000d479087a207b621206da051c051c051cfb
:1004e00090003ee4f0a3f0900031e054e0600e2470
:1004f000e0606a24a0604024e06071807ea3e01484
:10050000602624fe601d24fe600a24fc601f24fe79
:1005100060208067120a8e900022e0640470647488
:10052000608062120a8880ef120a8280ea120bbe93
:1005300080e5120cf580e0a3e0600e24fa600f2441
:10054000fe601024fe601180321208be80c9120abb
:10055000d680c4120b9880bf120c9780ba90003ed0
:100560007446f0a37407f012074680ab90003e7407
:100570000cf0a37408f012080c809c900022740404
:10058000f0809c7440906211f0900022e0f87401b9
:1005900068705e7f0290003ce0f8a3e0f9c3e89445
:1005a00020e994005007e8f50a7f0a8003750a20c5
:1005b0009000391201eda90a7a207b621206f30538
:1005c0001c051c051c850a0812060f250812063298
:1005d00012061cef906211f0e50ac39420501d1220
:1005e00006276006120643120166900022e4f0809e
:1005f0000b7405687006120643120166ee90620ed7
:10060000f0a81c1201cc051c051c7f0302019c9064
:100610000039e0f9a3e0faa3e0fbe922c3e0950882
:10062000f0a3e09400f02290003ee0f8a3e0f9e8a7
:100630004922f9e43afa900039e9f0a3eaf0a3eb91
:10064000f0a322059290003ee0f582a3e0f5830539
:100650009222c008c0097800742328f582e434008f
:10066000f583e95392fef008e8c3940540ea780068
:10067000742828f582e43400f583e9f008e8c3948f
:100680000540edd009d008225392fe90001b740261
:10069000f0a3e4f0900022f0790312065222c00881
:1006a000c00975082175090078081201d87c007d01
:1006b000007a407b00120dca051c051c90001b74bb
:1006c00002f090620f04f0e0a2e750fb80b553f413
:1006d000fed29043fe015392fe2212070c6010538b
:1006e00092fee012010de9240109e43afadcf0532c
:1006f00092fe2212070c60101200ec5392fef0e9f9
:10070000240109e43afadcf05392fe228a828b83b8
:10071000e9fca81ce2f908e2fa08e2fbec22eec0d0
:10072000e05392fe906206e0f8906202e0fe906272
:1007300004e0e8a2e25003120688eea2e0500312a1
:100740000414d0e0fe2274f7120168900032e070c9
:10075000030207f114600302080190001a7401f00b
:10076000900022e0f87038900037e0f8a3e0f9e854
:1007700049700d9000ab7402f0900022e40208066c
:100780009000397461f0a37400f0a3e4f0a3e8f0e2
:10079000a3e9f09000227402f09000ab048067742b
:1007a0000268705d900033e02440f508a3e0340057
:1007b000f509e508541f701285080a85090b7405b0
:1007c000780a120144a90a12024b900037e0240370
:1007d00054fcf97c617d0074047808120153aa0866
:1007e000ab09120276900022e4f09000ab74058011
:1007f0001590001a7402f0900022e4f075c9088088
:10080000069000227404f07f0402019c5392fe9033
:100810000032e06403701a90003974a7f0a37400ea
:10082000f0a3e4f0a37406f0a3e4f090002204f037
:100830002280009000227404f0225392fe9000a1c6
:10084000e4f0a3740ff02274fa120168151c151c51
:10085000a81c1201c4eafcebf87a007b000880387f
:10086000e8604d05929000a1e0fda3e0f5838d8244
:10087000a3e493fdec6d6034e96d70099000a1e094
:10088000faa3e0fb189000a1e02efea3e03400ffe5
:100890009000a1eef0a3eff09000a1e0f584a3e0ba
:1008a000f585e4059293fe70b7e860047a007b005a
:1008b000a81c1201cc051c051c7f0102019cc0086c
:1008c000120c896003020996a3e0f8a3e06003021a
:1008d0000996a3e064027002a3e060030209969007
:1008e0000031e02480600914604f14605c020996b6
:1008f000e8600302099690002ee06004780180020f
:1009000078009000a3e8f0a3e4f090002de0600ae6
:100910009000a3e04402f0a3e4f0900022e064041d
:10092000601490003974a3f0a37400f0a3e4f0a362
:100930007402120cecf0d0082290001be0640470ea
:10094000559000a3e4f0a380d0e8547ff508900010
:100950001be064047040e508c394065039741b25fd
:1009600008f582e43400f583e854806018a3a3a35b
:10097000a3a3a3a3e064037004780180027800902d
:1009800000a3e88091e582240cf58250020583e003
:10099000640370e980e39000227404809874f91273
:1009a0000168151c151ca81c1201c4e9fa90003737
:1009b000120c8f6003020a6c90001be06404600b51
:1009c000900035120c8f6003020a6c900031e054e5
:1009d0001f6009146023146012020a6c900033e057
:1009e00064017015ea90002d020a71900035e05400
:1009f0007ff508900033e0600479008077e508c354
:100a000094065068e50890620ef0741b2508f58482
:100a1000e43400f585900035e054806021ea6004fc
:100a2000741080027440906211f0ea6004740380d4
:100a300001e40592a3a3a3a3a3a3a3f08025ea60e6
:100a400004742080027480906214f0ea60047403dd
:100a50008001e4c0e0e584240cf582e43585f5836b
:100a6000d0e0f05392fe90620ee480059000227474
:100a700004f07901a81c1201cc051c051c7f0202a0
:100a8000019c790012099d22790112099d2253923d
:100a9000fe900035120c8f7018a3120c8f701290fc
:100aa0000033e0f8a3e0f9e85480fae9fbea4b6090
:100ab00002801ce8906200f090001b6009e0640274
:100ac000700c7403f022e0640370037402f022904f
:100ad00000227404f02274f812016812083a90009f
:100ae00033e0faa3e0f914600814600d146031805b
:100af000377b007a0079018033eafb7a00790212b1
:100b00000847120b83e92402f9e43afa89828a83be
:100b1000e493f8740193f990003ce8f0a3e9801c99
:100b2000eafb7a00790380047b007a0012084712fe
:100b30000b83a37b801200eca3f0a3e4f0900039b8
:100b4000e0fca3e0fda3e0feec4d4e90002270041b
:100b500074048029e064046025900037e0faa3e083
:100b6000fb90003ce0f8a3e0f9c3ea98eb99500849
:100b700090003ceaf0a3ebf09000227401f07f03b8
:100b800002019c900039eaf0a3ebf0a37480f0908e
:100b90000039e0f9a3e0fa22120c897010a3120cbc
:100ba0008f700aa3e064017002a3e06003020acf21
:100bb000900039741cf0a37400120ce2f02274f857
:100bc00012016890001be064027003020c70900038
:100bd00035120c8f6003020c70a3120c8f6003029d
:100be0000c70900034e06003020c7012083a900020
:100bf00033e07003020c787b007a00790212084718
:100c00008a088b09ae08af09ee4f6064900033e0ac
:100c1000f88e828f83a3a3a3a3a3e493c0e0e8fa92
:100c2000d0e06a70d290001b7404f0e8a3f0750a5b
:100c3000008e828f83a3a3a3a3e493f8e50ac3984d
:100c40005044850a08741d2508f582e43400f583b4
:100c5000e4f07b007a0079041208478a828b83e5ee
:100c60008245836007a3a3a3e49370e6050a80c1cd
:100c70009000227404f0800e90001cf090001b7411
:100c800003f0f9120652020b7e5392fe900033e0fd
:100c9000f8a3e0f9e8492274f812016890001be01b
:100ca00064047019900031e064817011120c8c7032
:100cb0000c900037e064017002a3e060079000220e
:100cc0007404801a900035e0241df508a3e0340078
:100cd000f509900039e508f0a3e509120ce2f002ed
:100ce0000b7ef0a3e4f0a304120cec22f0a3e4f0da
:100cf000900022042274f9120168151c151ca81c0e
:100d00001201c490001be064046003020d9a90007d
:100d100031e064016003020d9a900037120c8f706d
:100d20007912083a7b007a0079021208478a828b8e
:100d300083e5824583600fa3a3a3a3a3e493f89064
:100d4000001ce06870de7b007a0279041208478a92
:100d5000828b83e582458360410592900033e0f801
:100d6000a3e0f9900035e0faa3e0fb858284858357
:100d700085a3a3e493fcea6c7001eb600d0592a3dc
:100d8000a3a3e493fce86c4970bc741d2af582743b
:100d9000003bf583e85392fe80059000227404f036
:100da000020a745392fe2274fa120168151c151c73
:100db000eafeebffa81ceef208eff2aa1cab937957
:100dc00001120da380ee1200932274fa120168e55d
:100dd0001c2406f8e2fe08e2ffee4f6014ecf88aed
:100de000828b83e8f0a3ee24ff1eef34ffff4e70ea
:100df000f27f0102019cffffffffffffffffffffec
:100e0000fffffffffffffffffffffffffffffffff2
:100e1000ffffffffffffffffffffffffffffffffe2
:100e2000ffffffffffffffffffffffffffffffffd2
:100e3000ffffffffffffffffffffffffffffffffc2
:100e4000ffffffffffffffffffffffffffffffffb2
:100e5000ffffffffffffffffffffffffffffffffa2
:100e6000ffffffffffffffffffffffffffffffff92
:100e7000ffffffffffffffffffffffffffffffff82
:100e8000ffffffffffffffffffffffffffffffff72
:100e9000ffffffffffffffffffffffffffffffff62
:100ea000ffffffffffffffffffffffffffffffff52
:100eb000ffffffffffffffffffffffffffffffff42
:100ec000ffffffffffffffffffffffffffffffff32
:100ed000ffffffffffffffffffffffffffffffff22
:100ee000ffffffffffffffffffffffffffffffff12
:100ef000ffffffffffffffffffffffffffffffff02
:100f000012010002000000205824feff0000010230
:100f1000030109021b0001010480250904000000ef
:100f2000fe01020409210d03e84000010104030948
:100f300004120342006c00750065006700690067d9
:100f400000610016034c006f007700200045006e22
:100f50000065007200670079000a03310032003337
:100f6000003400080344004600550000ffffffff67
:100f7000ffffffffffffffffffffffffffffffff81
:100f8000ffffffffffffffffffffffffffffffff71
:100f9000ffffffffffffffffffffffffffffffff61
:100fa000ffffffffffffffffffffffffffffffff51
:100fb000ffffffffffffffffffffffffffffffff41
:100fc000ffffffffffffffffffffffffffffffff31
:100fd000ffffffffffffffffffffffffffffffff21
:100fe000ffffffffffffffffffffffffffffffff11
:100ff000ffffffffffffffffffffffffffffffff01
:10100000021108022ffdffffffffff023b70fffff1
:10101000ffffff023cc8ffffffffff023d7fffff16
:10102000ffffff0225e8ffffffffff023936ffff4a
:10103000ffffffffffffffffffffff023d1fffff5f
:10104000ffffff023ca3ffffffffffffffffffffcc
:10105000ffffff022fe3ffffffffffffffffffff89
:10106000ffffffffffffffffffffff023aadffffa4
:10107000ffffff023df1ffffffffff023b30ffffdd
:10108000ffffff023008ffffffffffffffffffff33
:10109000ffffffbf2b0fe700000000000000000073
:1010a0000000437582f975837f7400121123e4797f
:1010b000347802b800028004f709d8fce4900302f7
:1010c00078e279058002f0a3d8fcd9fa7ae37b07ad
:1010d000901144786579028015e493a3ad82ae83c4
:1010e0008a828b83f0a3aa82ab838d828e83d8e918
:1010f000d9e77582a97583d874021211237582b756
:101100007583e1740212112375d00075813f75312a
:1011100000753202753303759f007593005392fe7c
:101120000210aec09ff59fe473d09f225392fed071
:1011300083d082c09fe493c0e0740193c0e0740246
:1011400093f59f220300000201020300000f00c379
:10115000a88ee8b19dcf7f5eb98b9f41efb055f46b
:1011600001fa00960064004b0032001e001400d605
:10117000be898e000106021213151429417671fff3
:10118000c1fbe84c90728be7b3518963ab23230218
:10119000841872aa612f3b51a8e53749fbc9ca0cd4
:1011a00018532cfd45e300400000fffffffffaff4e
:1011b000ffff00008000620000000500060007003d
:1011c0000000010001000001000102020300020012
:1011d00000000000020201000240420f001900005e
:1011e00000093d0000e4fffffffb349b5f8000002f
:1011f00080001000000000000000800100010000dd
:10120000000000010805000000ff000000000000d1
:1012100007030000008000010000800000040000bf
:1012200000000007090000000d0000010407000095
:101230000000000201000002020000070a0000088e
:1012400005d01ad61adc1ae21ae81aee1a581a62ef
:101250001c441cc81cb01cb61c8000040502000005
:1012600000800004060600000080000402800004e4
:1012700004800002000b00000080000600ff22171f
:10128000ce132c194014c21c681c961bce1c521a7b
:10129000ff550601ffffff0000000080ffffffff7a
:1012a00000000000c000000012112c47b202121111
:1012b0002c5fb20212112c8ab20212112cd7b20288
:1012c00012112cefb20212112c17b30212112c675b
:1012d000b30212112c97b30212112cf8b30212119f
:1012e0002c14b40212112c30b40212112c55b40279
:1012f00012112caeb40212112c3db90212112cf1b4
:10130000b90212112c0fde0212112c27de0212116b
:101310002c98de0212112cdbde0212112c68ca029c
:1013200012112cfcca0212112c72cb0212112c8841
:10133000cb0212112cb4cb0212112cc9cb02121108
:101340002c22cc0212112c43cc0212112ca1cc0263
:1013500012112ce6cc0212112c57cd0212112c8244
:10136000cd0212112c06ce0212112c35ce02121112
:101370002c54ce0212112c68ce0212112cadce02ca
:1013800012112cfbce0212112caec50212112cca66
:10139000c50212112c00c60212112c0ec602121127
:1013a0002c3fc60212112c6cc60212112c75c602fb
:1013b00012112cb8c60212112c3ec70212112cab0e
:1013c000c70212112cfcc70212112c2bc8021211d9
:1013d0002c7fc80212112c51c90212112c5cc902b7
:1013e00012112c8fc90212112cc0c90212112c111a
:1013f000ca0212112c4eca0212112c05e10212115e
:101400002c25e10212112c4ee10212112c21e002d6
:1014100012112c35e00212112c8ce00212112c92c8
:10142000e10212112c9edf0212112ccbdf021211ed
:101430002c4ea00212112cb5a00212112ccca0022d
:1014400012112c10a10212112c56a10212112caa59
:10145000a10212112cfda20212112cd6a30212110c
:101460002c7da40212112ca1a40212112ce3a402bf
:1014700012112c7ea50212112ccca50212112c2abd
:10148000a60212112c3da60212112c2da702121138
:101490002c2fa80212112ca1a80212112cca3e0056
:1014a00012112c70400012112cf4400012112c4229
:1014b000420012112cb1420012112ceb4200121109
:1014c0002cb5430012112c43440012112c2245006c
:1014d00012112c36460012112c28470012112c62d2
:1014e000480012112cbb480012112c234900121184
:1014f0002ca0490012112c414a0012112cb34a00b1
:1015000012112c4c4b0012112cb24b0012112c203a
:101510004c0012112c754c0012112cfd4c001211b4
:101520002cb34d0012112c694e0012112c2b5000bf
:1015300012112c5c520012112ca1520012112c1d00
:10154000530012112c86530012112cd45300121187
:101550002c80550012112c20560012112cac560074
:1015600012112ced560012112c6e580012112ccfb6
:10157000580012112cf1590012112cf85a001211b6
:101580002c275c0012112c5b5d0012112c335f00c4
:1015900012112cf1610012112c89620012112c46db
:1015a000630012112c37640012112c976400121181
:1015b0002cf6680012112c716b0012112c3f6c007c
:1015c00012112c7f6e0012112c956f0012112cbe7f
:1015d000700012112cd5700012112c01fd01121196
:1015e0002c40fd0112112c6dfd0112112c9afd01f0
:1015f00012112c87fe0112112c5eff0112112cfd1d
:10160000dc0212112c56dd0212112cb7dd02121170
:101610002c00800112112c2a800112112c768001dd
:1016200012112c94800112112cb1800112112cceb8
:10163000800112112c54810112112c6c83011211a2
:101640002cd2830112112c45840112112c828401a9
:1016500012112cb7840112112cf9840112112c677c
:10166000850112112c15860112112c2386011211ed
:101670002c5a870112112c88890112112c0e8a0113
:1016800012112c428a0112112c808b0112112c9ef6
:101690008c0112112cbf8c0112112c178d0112110b
:1016a0002c358d0112112c718d0112112ca48d017c
:1016b00012112cb3910112112cdb910112112c2764
:1016c000920112112ceb970112112c379801121173
:1016d0002c78980112112c24990112112ce59901f2
:1016e00012112c729c0112112cc19d0112112c316e
:1016f0009e0112112c7ba00112112cf9a0011211d4
:101700002c3da10112112c89a10112112ce1a10182
:1017100012112c82a20112112cd3a20112112c2e13
:10172000a30112112c38a30112112c6ba401121168
:101730002c8ca40112112c1fa50112112cdfa50164
:1017400012112c7ca60112112c12a80112112c339b
:10175000a80112112c8eaa0112112ca8ab01121192
:101760002c48ac0112112cbcac0112112c58ad014b
:1017700012112c63af0112112c74af0112112c7ec7
:10178000af0112112c65b10112112cccb101121153
:101790002cfbb10112112c69b20112112c98b2016b
:1017a00012112c40b30112112cbeb30112112c1fc7
:1017b000b40112112c95b40112112cb3b401121101
:1017c0002ce8b40112112c1fb50112112c7eb501a9
:1017d00012112c8cb50112112ccbb50112112c3a1f
:1017e000b60112112c88d90212112c44da021211fe
:1017f0002c66da0212112cb1da0212112cf4da0280
:1018000012112cdb7f0012112cc4ef0112112cf0ed
:10181000ef0112112c38f00112112c8df001121170
:101820002ceef00112112c4ff30112112c81f40156
:1018300012112c8ef70112112cd2f70112112cdd8e
:10184000f80112112cdff90112112c5afb011211af
:101850002ccffb0112112ce2fc0112112c01cf0242
:1018600012112c2dcf0212112c44cf0212112c4830
:10187000cf0212112ce2cf0212112c07d102121149
:101880002c00800212112c61800212112c7e800229
:1018900012112cab800212112cd7800212112c0bca
:1018a000810212112c5a810212112c89810212110b
:1018b0002cec810212112c49820212112c17830286
:1018c00012112c91830212112c32850212112cea72
:1018d000850212112c98880212112c3e8c021211d2
:1018e0002c7f8c0212112cd88c0212112c888d02a4
:1018f00012112c668f0212112cf68f0212112c3746
:10190000900212112c8d900212112ce590021211ee
:101910002c0b910212112c5e910212112c9f91023c
:1019200012112c10930212112c31940212112c421c
:10193000940212112cc6950212112cdc9502121180
:101940002c04960212112ca4960212112cb99602a4
:1019500012112ceb960212112cf1970212112c8805
:10196000980212112cbe980212112c069902121123
:101970002cfa990212112c559a0212112c3c9b023e
:1019800012112caf9b0212112cf39b0212112cd9b5
:101990009c0212112c359f0212112c659f0212110c
:1019a0002ce59f0212112c46db0212112c53db0294
:1019b00012112c76db0212112cb9dc0212112cc68a
:1019c000dc0212112cf4dc0212112cf2c0021211f2
:1019d0002c11c10212112cdcc10212112c82c30283
:1019e00012112ce0c30212112c12c50212112c7b11
:1019f000c50212112c09df0212112c37df0212115d
:101a00002c61df0212112ca0d10212112c29d2025a
:101a100012112c5bd20212112ccbd20212112c6d9e
:101a2000d30212112c95d30212112c39b7011211c5
:101a30002c8fb70112112c95b90112112c20bb016a
:101a400012112ce6bb0112112cf6bc0112112c94c0
:101a5000bd0112112c11be0112112cc3be011211b5
:101a60002c2bc10112112cabc10112112c0fc20180
:101a700012112cb9c20112112ccbc30112112cd09e
:101a8000c40112112c51c90112112ca0cb01121149
:101a90002c4bce0112112cfdd00112112cddd301e3
:101aa00012112cc0d50112112c2bd80112112cc3ec
:101ab000dc0112112c74de0112112cf1de01121165
:101ac0002c7bdf0112112ccfdf0112112cd3d50298
:101ad00012112c51d60212112c67d60212112c7d34
:101ae000d60212112c93d60212112cb4d602121166
:101af0002ccad60212112ce0d60212112cd7a90240
:101b000012112c67aa0212112ceaaa0212112c102f
:101b1000ab0212112cdcab0212112c92ac0212118e
:101b20002cd2ac0212112c58ad0212112ccaad02eb
:101b300012112c2cae0212112ca9ae0212112cbcc7
:101b4000ae0212112cd0ae0212112c05af021211ee
:101b50002c37af0212112c69af0212112cafaf0259
:101b600012112cefaf0212112c43b00212112c52a1
:101b7000b00212112c5bb00212112ceeb002121145
:101b80002c25b20212112c0dba0212112c1cba0211
:101b900012112c1abb0212112c2cbb0212112cbade
:101ba000bc0212112c95bd0212112cfebd021211a5
:101bb0002c17be0212112c2dbe0212112c67be0270
:101bc00012112caabe0212112cf4be0212112c3dcd
:101bd000bf0212112c08c00212112c16c0021211e1
:101be0002c1ec00212112c46c00212112c5fc00222
:101bf00012112c84c00212112ca4c00212112cb498
:101c0000c00212112cc4c00212112cd6c002121133
:101c10002ce4c00212112cb1d70212112c00d802f0
:101c200012112cf2df0112112c99e00112112cf18a
:101c3000e00112112c34e10112112c07ed011211f7
:101c40002c39ed0112112c3cef0112112ce6d302bc
:101c500012112c48d40212112c6cd40212112cbb7c
:101c6000d40212112c0fd50212112cb0d502121170
:101c70002cc9d50212112cab770012112cc8770099
:101c800012112cd8780012112c37790012112cdf88
:101c9000790012112c5e7b0012112c0a7c001211ab
:101ca0002c517c0012112caf7c0012112c157d00e0
:101cb00012112c677d0012112cf37d0012112c6e75
:101cc0007e0012112c477f0012112ca9e102121183
:101cd0002cade10212112cafe10212112cb5e10280
:101ce00012112ca3100012112c98e00212112ca436
:101cf000ff0112112c63e102e76670100809e76624
:101d0000700a0809e76670040809e76622e0667051
:101d10001008a3e066700a08a3e066700408a3e058
:101d20006622c3e7960809e7960809e7960809e7d7
:101d300096a2d265d03322c3e09608a3e09608a30a
:101d4000e09608a3e096a2d265d03322c021c3e07a
:101d500096f52108a3e096422108a3e096422108c7
:101d6000a3e0964221a2d265d033e5217001d3d001
:101d70002122c3e7960809e7960809e7960809e7cc
:101d80009622c3e09608a3e09608a3e09608a3e095
:101d90009622c021c3e096f52108a3e096422108cf
:101da000a3e096422108a3e09645217001d3d021fb
:101db00022080808eac0e0ebc0e086f0e7a4fa18c1
:101dc0000986f0e7a42afa180986f0e7a42afa1887
:101dd0000986f0e7a42afa1986f0e7a4fbe5f02ac1
:101de000fa190886f0e7a42bfbe5f03afa19088601
:101df000f0e7a42bfbe5f03afa18180986f0e7a4ff
:101e0000c5f02bfbe43afa1908e7c5f0c6a426f69c
:101e1000e5f03bfbe43afa1886f0e7a4f6e5f008b3
:101e200026f6e43b08f6e43a08f6d0e0fbd0e0fa08
:101e300022e4cfc0e0e4cec0e0e4cdc0e0e4ccc01a
:101e4000e075f020e626f608e633f608e633f608f5
:101e5000e633f6181818ec33fced33fdee33feefe5
:101e600033ffc3ec9709ed9709ee9709ef9719191e
:101e700019400fffec97fc09ed97fd09ee97fe194d
:101e80001906d5f0bfecf709edf709eef709eff702
:101e9000191919d0e0fcd0e0fdd0e0fed0e0ff221f
:101ea000121f08181818121e31121ef719191922bc
:101eb000121ef7191919080808e618181820e7e083
:101ec000121e31121f0818181822090909e71919da
:101ed0001920e7dc080808e618181820e703021e96
:101ee00031121f08181818121e31121f081818185e
:101ef000121ef719191922e4c397f709e497f70995
:101f0000e497f709e497f722e4c396f608e496f617
:101f100008e496f608e496f6226017080808c6a2b8
:101f2000e713c618c613c618c613c618c613c6d5f7
:101f3000e0e9226016080808c6c313c618c613c60f
:101f400018c613c618c613c6d5e0ea2270090808d9
:101f500008226016181818c6c333c608c633c60848
:101f6000c633c608c633c6d5e0ea22e627f6080916
:101f7000e637f60809e637f60809e637f622e026de
:101f8000f608a3e036f608a3e036f608a3e036f636
:101f900022e026f008a3e036f008a3e036f008a31c
:101fa000e036f022c3e697f60809e697f60809e658
:101fb00097f60809e697f622c3e0c696f608a3e06e
:101fc000c696f608a3e0c696f608a3e0c696f622e3
:101fd000e657f60809e657f60809e657f60809e64f
:101fe00057f622e056f608a3e056f608a3e056f6a8
:101ff00008a3e056f622e647f60809e647f6080980
:10200000e647f60809e647f622e046f608a3e0466a
:10201000f608a3e046f608a3e046f622e046f008fc
:10202000a3e046f008a3e046f008a3e046f022e66d
:1020300067f60809e667f60809e667f60809e6673d
:10204000f622e066f608a3e066f608a3e066f60866
:10205000a3e066f622e0f608a3e0f608a3e0f6089f
:10206000a3e0f622e6f008a3e6f008a3e6f008a352
:10207000e6f022e0faa3e0fba3e0fca3e0fd22ea05
:10208000f0a3ebf0a3ecf0a3edf022e0fca3e0fd65
:10209000a3e0fea3e0ff22ecf0a3edf0a3eef0a39b
:1020a000eff022e0f8a3e0f9a3e0faa3e0fb22e8d6
:1020b000f0a3e9f0a3eaf0a3ebf022cac0e0e6f057
:1020c000a308dafad0e0fa22cac0e0e0a30592f051
:1020d000a30592daf6d0e0ca225392fefae9fb7920
:1020e00021e7f0a309dafae8f0a3ebf9f0a3ecf0aa
:1020f000a3edf0a3eef0a3eff0a3e520f0a3e5f04d
:10210000f0a3e592f0a3e584f0a3e585f0a3e581d3
:10211000f0a3e531f0a3e532f0a3e533f0a3d0e07e
:10212000fad0e0f0a3caf0eac0e0e0c0e07a007bb9
:1021300000225392fecac0e0ebc0e07921e0f7a391
:1021400009dafae0f8a3e0f9a3e0fca3e0fda3e0dc
:10215000fea3e0ffa3e0f520a3e0f5f0a3e0c0e0dc
:10216000a3e0f584a3e0f585a3d0e0f592d0e0fbf1
:10217000d0e0fae0f581a3e0f531a3e0f532a3e089
:10218000f533a3d0e0d0e0e0c0e0a3e0c0e0ea4b4c
:1021900070027a0122c3e498f8e499f91221d680fa
:1021a00026c3e49afae49bfbe920e7e91221d6e48e
:1021b00098f8e499f922c3e498f8e499f91221d641
:1021c000e498f8e499f9c3e49afae49bfb22eb2043
:1021d000e7cfe920e7e0b90010bb0008e88af08407
:1021e000f8aaf022e4fbc8fa22eb70227b10c83375
:1021f000c8c933c9335007c39ac3dbf280069a506b
:10220000012adbeac833f4c8c933f4c9fa2275f0ed
:1022100008e4c833c8c933c933c99ac99b5004c933
:102220002ac93bd5f0ecfbc833f4c8e4c9fa2260f4
:102230000d08c6a2e713c618c613c6d5e0f3226080
:102240000c08c6c313c618c613c6d5e0f422700422
:1022500022600d18c6c333c608c633c6d5e0f418cd
:1022600022253210af08f532400c15338008f532c4
:1022700040021533d2af2200c0d0253210af08f58e
:1022800032500c05338008f53250020533d2afd0fe
:10229000d0222532f58210af08f532400c1533807c
:1022a00008f53240021533d2af85338322c582252b
:1022b00032c582c583353310af07f533858232804e
:1022c00007f533858232d2afc583222532f582e409
:1022d0003533f583222532f584e43533f58522251f
:1022e00032f8e43533f9222532fae43533fb22257e
:1022f00032fce43533fd22e4735392fe2532c5826d
:10230000c0e0e53334ffc583c0e0e532c3958224e5
:10231000f810af0885833385823280088583338542
:102320008232d2afcef0a3e520f0a37821e608f008
:10233000a3defaeff0a3e58124faf8e608f0a3e6bd
:1023400008f0a3e608f0a30808e608f0a3e608f002
:10235000a315811581d0e0fed0e0f8158115811517
:1023600081e8c0e0eec0e0225392fe2532c582c073
:10237000e0e53334ffc583c0e0e532c3958224f93c
:1023800010af088583338582328008858333858248
:1023900032d2afcef0a3e520f0a37821e608f0a377
:1023a000defaeff0a3e58124fbf8e608f0a3e608e7
:1023b000f0a30808e608f0a3e608f0a3158115814c
:1023c000d0e0fed0e0f815811581e8c0e0eec0e075
:1023d000225392fe853383853282e0a3fee0a3f58b
:1023e000207821e0a3f608dffae0a3ffe0a3c0e035
:1023f000e0a3c0e0e0a3c0e0e0a3c0e0e0a3c0e051
:1024000010af0885823285833380088582328583c8
:1024100033d2afd083d0825392fe0211295392fe61
:10242000853383853282e0a3fee0a3f5207821e0a6
:10243000a3f608dffae0a3ffe0a3c0e0e0a3c0e05a
:10244000e0a3c0e0e0a3c0e010af0885823285833e
:10245000338008858232858333d2afd083d08253d4
:1024600092fe22c0925392fec0d02532c582c0e0b7
:10247000e53334ffc583c0e0e532c3958224f21012
:10248000af08858333858232800885833385823225
:10249000d2afc8f0a3e9f0a3eaf0a3ebf0a379214f
:1024a000e709f0a3d8faecf0a3edf0a3eef0a3ef68
:1024b000f0a3d0e0f0a3d0e0f0a3d0e0f0a3e520bb
:1024c000f0a3e5f0f0a3d0e0f0225392fe85338331
:1024d000853282e0c0e0a3e0f9a3e0faa3e0fba329
:1024e0007821e0f608a3dffae0fca3e0fda3e0fe1c
:1024f000a3e0ffa3e0c0e0a3e0c0e0a3e0f5d0a329
:10250000e0f520a3e0a3f5f0e0a3c0e010af08855c
:1025100083338582328008858333858232d2afd07f
:10252000e0d082d083f592d0e0f8d0e032e584f0bc
:10253000a3e585f022e0a3f584e0f585227404800c
:1025400006740280027401c0e0f404122292d0e00a
:102550001220bb2274048006740280027401c0e061
:10256000f404122292d0e01220c822d083d082c577
:10257000f0e493a3c5f0c395f0f5f0e493a3c395fd
:10258000f04005e5f0048001e475f002a42582f531
:1025900082e5f03583f583e493a3c0e0e493c0e0e3
:1025a00022d083d082e9c0e0e493a3c386f0c5f0d3
:1025b00095f0f908e493a386f0c5f095f0700be46c
:1025c00093a3c3994005e9048002a3e475f002a433
:1025d0002582f582e5f03583f583d0e0f9e493a315
:1025e000c0e0e493c0e022ffc0e0c0d075d008c0d6
:1025f00092c082c083c0f0759800e5a8f8c2af53be
:1026000092fe9004d7e0d2e1f0753400e8a2e7e44e
:1026100033fee8a2e792af1212f0d0f0d083d0825e
:10262000d092d0d0d0e032c082c0835392fe9004ca
:10263000a6e4f0a3f0a3f0a3f0d083d0822274f735
:1026400012236879001219a49003f2122e66eac3cd
:1026500098f8eb99f9e82404fee439ff9003ffe0d1
:10266000fca3e0fdc3ee9cef9d402e9003fde0fc3b
:10267000a3e0fd900401e02af8a3e03bf9e8c39c45
:10268000f8e99df99003f2122c84a3ecf0a3edf08d
:102690009003ffecf0a3ed80239003f2122b3d900a
:1026a00003ff122c629003ff122e669003f4122c8b
:1026b000849003fbe070047402800114f07af07bd4
:1026c0000312377c800ff0853282853383122535e3
:1026d00074021222777f0202241d74f7122368e924
:1026e000fe9003fce0f8ee600924fe601d14601a01
:1026f00080329003f9e0a2e35009e860279003fce0
:10270000148020c2e2f0d2e380199003f9e0a2e243
:10271000500c740868600d9003fce0048005c2e36f
:10272000f0d2e2f09003fae070089003f874fff042
:10273000804890600a122b35703d90618fe0c0e0b8
:102740009003fce0f87408c398f8d0e0b800028069
:1027500004c313d8fcf52174ff6521700990600a49
:10276000e4f0a3048010e5212401f8e43400f9909a
:10277000600ae8f0a3e9f012263e0226d574f712ab
:102780002368e9fe24fc600624fe602a800d900484
:10279000bfe06401705d1216ec8058900419e0648b
:1027a000017013900413e4f0ee700b7b0912391dd5
:1027b000fa79001239e5900413e07008900411745e
:1027c000fff0802f90618fe0ff79001219a48b2217
:1027d000a922900415e02af8a3e039f9740f5ffaf2
:1027e000e82af8e439f990040b122c847a097b0466
:1027f00012377c0226d574f712236874fe122292d7
:1028000012252d900463122e66e82412fae439fb97
:1028100090605ce060088a828b83e0d2e1f0e8247b
:1028200030fce439fde82432f584e439f585906024
:102830005ae0700690605ee060368a828b83e0a288
:10284000e14019d2e1f0e82422f582e439f583125f
:102850002b2d12224e8c828d8312322be40592f0a6
:10286000a3f079008532828533835392fe0226cd10
:10287000e812320939f58312358e85848285858385
:10288000e02ef0a3e03ff08c828d830592e0fca364
:10289000e0fdc30592e09ca3e09d50c68882898339
:1028a000a3a3a3a3a3a3a3a3a38582848583858acb
:1028b000828b83e0a2e1500474088002743e05928a
:1028c000f07b02888289830592a3a3a3a3a3a3a379
:1028d000a3e0fa79001239e57901808874f51223b2
:1028e0006874fe12229212252d122b25240af584db
:1028f000e43ff5850592e0fc7003022b20122e4682
:102900000592122e668e828f83a3a3a3a3a3a3a3f3
:10291000a38582238583248e828f83a3a3a3a3a36d
:10292000a3a3a3a3aa82ab83ee2434123525687037
:1029300003a3e069701a74026c7003022ab974016f
:102940006c607a74096c60258a828b83742280584b
:10295000ec146069147003022ab924fa601c146034
:102960000c146045147003022afc022b20906008ae
:10297000e0a2e65003022b20802fee2439f582e4fa
:102980003ff583801388828983a3a3a3e064037047
:1029900003022b2088828983122b3570e88a828b70
:1029a00083e0641370037416f07b02852382852410
:1029b00083e0fa79001239e57901022b22ee2455e1
:1029c00012317bee244cfce43ffdea24fff521ebc1
:1029d00034fff522e521687003e522697075ee2465
:1029e0004d122bc38e828f83122b3b8c828d83e002
:1029f00025e0f8e433f9e82403f85001098e828fca
:102a000083a3a3a3a3122c85900494e0a2e0500911
:102a10008e828f83a3a3122c809004aee4f0a3f0e7
:102a2000a3f0a37402f0900494e0a2e04003022b10
:102a300020906062e4f08c828d83e0f875f0e2a46f
:102a4000c8aaf075f004a42af9e8122e58122c84b2
:102a5000022b20ea687002eb696003022b207521cb
:102a6000097522007821122541ee241bfae43ffb70
:102a7000121cec7402122277900494e0a2e050073a
:102a8000eefaeffb123187e40592f0ee2422f58294
:102a9000e43ff5830592122b2d12224eee2430f5e1
:102aa00082e43ff58312322bee2432f582e43ff5c7
:102ab00083e4f0a3f07b08805ae824010850010960
:102ac000ee245c123525687003a3e069705275210d
:102ad000057522007821122541ee2457fce43ffdc4
:102ae000ee2424fae43ffb121cec7402122277ee6f
:102af000faeffb1216e6e40592f08024eefaeffb03
:102b00001212f6e40592f00592900494e0a2e050cf
:102b10000f7b07852382852483e0fa79001239e54b
:102b20007900022f5690046312358eee22122c7813
:102b30007403782122122e6ae84922a3a3e028f028
:102b4000a3e039f02274f812236874fe1222921264
:102b5000252d900463e0f584a3e0f5851228dce9d7
:102b6000704e1227f6e97048e584242ef582e4358c
:102b700085f583e02401f0a3e03400f0906008e0e4
:102b8000c0e0e5842436f582e43585f583d0e0f0b5
:102b9000e5841232093585122bc70592a3a3e028dc
:102ba000f0a3e039f0059290046312318112377c72
:102bb00085328285338312253574021222777f0194
:102bc00002241df582e43ff583122bcd22e0f8a309
:102bd000e0f9e828f8e933f92274f712236874fe63
:102be00012229212252d8a828b83a3a3ac82ad83fd
:102bf0009004b3ea241ef584e43bf5850592e0f8e1
:102c0000a3e0f9e828f8e933f9900496e0f521a368
:102c1000e012320f0592e028f8a3e039f98c828d9a
:102c200083122c849004ae122c6b8c828d83122c18
:102c3000629004b0122c6b7a207b4e1221d6882130
:102c400089228c828d83e09521f0a3e09522f0907b
:102c500004b5122c6be828f8e933f9e8122e50027b
:102c600026c6c3e098f0a3e099f022122e6a9004e1
:102c700096122c7812321522e0f521a3e0f52222db
:102c8000a3a3a3a3e8f0a3e9f02274f712236874c6
:102c9000fe12229212252d122b252412f584e43fd8
:102ca000f5850592e0a2e35008c2e3f00592022efa
:102cb0003a8e828f830592a3a385822185832290f9
:102cc0006062e0601079101219a485218285228348
:102cd000eaf0a3ebf01228dce96003022e4312278e
:102ce000f6e96003022e43906008e0c0e0ee24366f
:102cf000f582e43ff583d0e0f09061d5e0f8906193
:102d0000d7e06805926005e0d2e28003e0c2e2f01d
:102d10000592906062e09004b06017e024c0faa3ce
:102d2000e03437fb1239ba9004b5123594122e50a4
:102d300080151231811239a49004b5122bc990600c
:102d400064e028f0a3e039f0852182852283e02425
:102d5000fff0a3e034fff0ee242b1235259004b2ef
:102d6000f0ee2420f582e43ff583122b3560498e86
:102d7000828f83a3a3a3a3a3a3a3a3a3a3e07038d9
:102d8000ee243212317bea4b702eee243912317b65
:102d9000ea4b7024e82401500109900496122c8516
:102da000852182852283122e669004b3122c84ee34
:102db000faeffb122bd980279004967401f0a3e45c
:102dc000f0ee241e122bc3852182852283122b3d17
:102dd0009004ae122e66852182852283122c628e8b
:102de000848f850592a3a3a3a3a3a30592906064f7
:102df000122e667a717b021221d68922e82405f808
:102e0000e43522f9858482858583122c848e828f15
:102e100083a3a3a3a3123181858482858583e0f8ef
:102e2000c3ea98eb99a2d265d0335005eaf0a3eb40
:102e3000f0122e63122e46122b3d90046312318144
:102e400012377c0226c7ee242ef582e43ff583225a
:102e5000122e58e8f0a3e92224eaf8e93402f990a6
:102e6000606422900496122e6a22e0f8a3e0f92210
:102e700074f512236874fe12229212252d8031c23d
:102e8000e5123918c0e09004bde0122f3bd0e0f00d
:102e90009004bde004f0a3e004f0a3e004f090048b
:102ea000c1e0700c7401f07b007a0079001239e502
:102eb00090605ae0f521906002e0a2e050047800b2
:102ec000800590605de0f89004bee0fae52128f806
:102ed000e43400f9e86a7001e960589004bde0f557
:102ee0002374012523547ff521e523122f3be0f8bd
:102ef00008089004bde028f074802521f582e434b0
:102f000060f5830592900463e0f8a3e0c82408f517
:102f100084e438f585e0a2e70592e04003022e7fc5
:102f2000d2e5f0122f4d24db123918fa122f4d4a38
:102f3000022e8f8532828533838024122f3f2254c4
:102f40007ff8748028f582e43460f583229004bd14
:102f5000e0122f3fe0228532828533835392fe12a6
:102f6000253574021222777f0402241d74f5122382
:102f70006874fe12229212252d8921059290046315
:102f8000e0f582a3e0f583858284858385a3a3a3ee
:102f9000a3a3a3a3a3e0a2e740469004c0e0f89057
:102fa0006054e0c398f5229004c0e02522f0ae8280
:102fb000af838011ee2439fae43ffb1215fcea4b93
:102fc00060031217fa85222374ff2523f52204706b
:102fd000e3e521a2e640097900eefaeffb12176a59
:102fe000022f56c0e074f11224638535c675a70020
:102ff00075a10079501219c27f010224cac0d07590
:10300000d01875bf00d0d032c0e0c0d075d018c085
:1030100092c082c083c0f08535c6e591fe759b00e5
:10302000f4f5915392fe906002e0a2e05004780023
:10303000800278087900e844015e6003122e70ee89
:10304000a2e55004f9122f6ceea2e75029e5a8f88a
:10305000c2af9004d7e0d2e0f0753400e8a2e7e414
:1030600033f9e8a2e792afe594a2e2400975940330
:10307000e594a2e250faeea2e640030231489060e5
:1030800061e0f99004bee4f09004c0f09004631293
:1030900031818a828b83a3a3a3a3a3a3a3a3e02448
:1030a00010601224fc600924fc700f1226da80667e
:1030b00012277d806112162c805c900493e06005dd
:1030c0001460148023906060e06480601be0c0e0c6
:1030d000123165d0e08010906058e0f890605ce0bc
:1030e00028f8123165e028f0906060e06480601696
:1030f000e0c0e0900463e0f8a3e0c82413f582e4a4
:1031000038f583d0e0f0900494e0a2e05005122c52
:103110008a8003122b45906059e0f89004a6e028bd
:10312000f0906058e0f89004a7e028f090605a1200
:10313000315c90605e12315c90605ce0f89004a9b4
:10314000e028f012161a8004a2e750031237c1d00b
:10315000f0d083d082d092d0d0d0e032e0f890048a
:10316000a8e028f022ea242cf582e43bf583e0fa7b
:10317000746e2af582e43404f58322f582e43ff587
:1031800083e0faa3e0fb2274f7122368ea242af50d
:1031900082e43bf583e025e0f8e433f974fe28f59a
:1031a00082740739f583e02432f8a3e03400f9eaa9
:1031b0001232093bf583e0f521a3e012320fe82437
:1031c0001ff8e93403f97a207b031221d68821897c
:1031d00022ac21ad227a717b021221d68a218b2268
:1031e0007405782112224e9004b012322becf8edc7
:1031f000f97a717b021221d69004ae122c849004cd
:10320000b5ecf0a3edf00226d5241ef582e422f5fc
:103210002212321522e88521f0a4c8aaf08522f0f6
:10322000a42afa8521f0e9a42af922e521f0a3e5f0
:1032300022f02274f712236874fe12229212252db6
:10324000900463e0fca3e0fd122e63ec2429f582d8
:10325000e43df583ec242bfae43dfb8a848b8574f2
:103260000168497012e0f80592e028fac3942540fd
:103270002974db2afa8023e0f521e88521f0a4f8ff
:10328000aaf08521f0e9a42af90592e0fae82af8e3
:10329000e439f97a257b001221d6eaf0ea131313f8
:1032a000541ff8ec28f8e43df9e82424f582e439c9
:1032b000f5830592e0c0e074075af8d0e0b8000248
:1032c0008004c313d8fca2e040288005e8cac39a52
:1032d000faec24e5f582e43df583e0f8eac3985082
:1032e000ebec2af8e43df9e824c0f582e439f583f3
:1032f000e0faec242cf582e43df583ea0226c6745c
:10330000f612236874fe12229212252d90041ae000
:103310009060026004740e8002740ff0900414e058
:10332000906001f090080e1220a39061951220afda
:10333000121776900419e0f52174016521900412aa
:103340007040e05402f97a1b7b0412164a90041272
:10335000e0a2e050097aa07b0475214080077a9aa8
:103360007b04752100a2e150047e8080027e0075fe
:10337000230678231225457c1b7d04e5214e44015c
:103380008068e0a2e050087aa07b04784080067a4a
:103390009a7b047800059290044012255c7c217d84
:1033a0000474122521f582e43408f5830592e0487f
:1033b000f91216507401122277900419e0f8600592
:1033c000740268702e900412e0a2e050087aa07b8c
:1033d00004784080067a9a7b047800059290046015
:1033e00012255c7c417d04e84404f91216507401f6
:1033f000122277900412e0a2e0e433f91216447529
:10340000910090041ae0906182600474c880027494
:10341000c0f012161485328285338312253574026a
:103420001222777f0302241dc082c0835392fe9034
:103430006002740ff09003fbe004f064037002e498
:10344000f0e02425906000f090080e1220a3906117
:10345000951220af9003f9e05420f9121644121788
:10346000769003f9e0a2e15004d2f08002c2f0a20b
:10347000f0e43390600cf09003f9e0a2e150357570
:10348000d90da2e55004784080027800e84403f5a5
:10349000d9e0a2e550067aa07b0480047a9a7b04e6
:1034a0007906121620740675d9001470fae5e170d9
:1034b000fc75e19575910090618274c1f01216144b
:1034c00002263974f812236874fe12229212252df6
:1034d0001235811217761235771220a3906195125a
:1034e00020af1235ca1232331235b1f584e43ff5fc
:1034f0008585848285858312359912176aee241298
:10350000123525a2e250180592e0f8a3e0f5838871
:10351000820592a3a3e02402f89061d5e028f0127e
:10352000160e022bb0f582e43ff583e02274f81208
:1035300023681235811217761235771220a3906115
:10354000951220af1235ca1232331235b1f582e42a
:103550003ff58312359912176aee1232093ff5834f
:1035600012359424fcf8e934fff98e828f83122cf3
:103570008012160e022bbeee2414f582e43ff58372
:103580002290046312358e906002740ff022e0fee8
:10359000a3e0ff22122bcde822122e6aee2437f58b
:1035a00082e43ff583e8f0a3e9f07900eefaeffb5f
:1035b00022ee242c123525906000f07591009004c5
:1035c000cbe0906182f0ee243922ee2436123525cc
:1035d000906008f0ee2418123525906005f0ee2476
:1035e00019123525906006f0ee241a1235259060e8
:1035f00007f02274f112236874fe12229212252d14
:103600007521007522007c6a7d04801b8882898375
:1036100012358e8c828d83eef0a3eff08882898341
:1036200012322b882189228c828d83122b284f7095
:10363000398c828d83eaf0a3ebf08a828b83e4f0ed
:10364000a3f0aa21ab2285328285338312253574fb
:10365000021222777f0802241de5232527f8e5249e
:103660003528f98a828b83122b3beef8eff988829a
:103670008983a3a38a848b850592a3a3e0f523a362
:10368000e0f5240592e0c39523f523a3e09524f506
:10369000248a828b83a3a3a3a3a3a3e0f525a3e09d
:1036a000f526c3e5239525e5249526a2d265d033da
:1036b000403e8a828b83122c848a828b83a3a3a3ad
:1036c000a3858284858385122e66c3e52398e5242d
:1036d00099a2d265d033500d858482858583e523f8
:1036e000f0a3e524f08c828d83eaf0a3eb0236414f
:1036f00088828983a3a3a3a3a3a3e0f527a3e0f56e
:1037000028c3e49527f525e49528f526c3e52595f6
:1037100023e5269524a2d265d03350288a828b8354
:10372000a3a3a3a3a3a3a3a3e0a2e7500302365934
:1037300088828983a3a3a3a3a3a3a3a3e0a2e750a2
:103740000302360c88828983a3a3a3a38582848580
:103750008385c3e49523fce49524fd12358ec3ece8
:103760009eed9fa2d265d033500b858482858583e0
:10377000ecf0a3edf0e8fce9fd02362774f7122324
:103780006874fe12229212252dea4b6031a2afe43a
:1037900033fec2af1235f38a828b838016aa82abc6
:1037a000838582848583850592e0f582a3e0f58395
:1037b0001235f3e582458370e4eea2e092af022673
:1037c000c774f512236879001219a48a238b24790f
:1037d000771219c29061b1e4f0e070f87403f0e080
:1037e000640370f890046a122e66900463122c84ad
:1037f000e8497012123901e594a2e240030238fb55
:103800007594000238fb8882898312318190046aa2
:10381000eaf0a3ebf088828983a3a3122c78888234
:103820008983a3a3a3a3e02521f8a3e03522f9e827
:1038300024fdfee934ffff90606074801239182483
:1038400010601424fc600624fc600780451232ffdf
:103850008050123428804be521c39523e52295241e
:10386000c39400a2d265d0335023e5232401f5216f
:10387000e43524f522c3e5219ee5229f4009e52198
:103880002401fee43522ff9003f212322b12177c42
:103890008010900494e0a2e050051234c38003121b
:1038a000352daa21ab2279301219b6eefaeffb7949
:1038b000401219b679541219c2e521c39523f8e5cf
:1038c000229524f9c3e89401e99400a2d265d0338b
:1038d000500c12178ee5e170fc75e121801d9003fc
:1038e00067e0a2e04012aa21ab221219b09004aa0c
:1038f00012207f123901800312178e121878022fbe
:1039000067e5a8f8c2af9004d7e0c2e0f0753400d4
:10391000e8a2e7a2e792af22f012391d22900463d9
:10392000e0f8a3e0c82408f582e438f583e022003b
:10393000853487c2af22c0e0c0d075d018c092c015
:1039400082c083c0f074fc1222615392fe9004d8ae
:10395000e0601c12163e900367e054117008e5c643
:1039600054384487f5c69004d8e4f0c2c78020c21a
:10397000c7aa32ab33121788e9640170129004d8d9
:103980007401f085328285338312207312186c75ae
:1039900034007404122277d0f0d083d082d092d039
:1039a000d0d0e03275c3007420c39afa744e9bfbea
:1039b000eaf5a2ebf5a35392fe22c02175c301e5ff
:1039c000a2f521e5a375c300f9e5212420f8e93427
:1039d0004ef9e8c39af8e99bf9e8f5a2e9f5a3d016
:1039e000215392fe2274f5122368e9feeaff8b212f
:1039f000753400a2afe433f522c2af900579e0f54b
:103a00002474012524540ff523900578e065237074
:103a1000057900121a1ce52475f003a4f8a9f074c6
:103a20000628f8740539f9e82442f582e439f5836b
:103a3000eef0e82443f582e439f583eff0e824441e
:103a4000f582e439f583e521f0e523900579f0e589
:103a500022a2e092af7f0402241dc082c08374fcc6
:103a6000122261e5a8f8c2afe595853282853383dd
:103a70005392fef0e596c0e074011222cbd0e0f044
:103a8000e597c0e074021222cbd0e0f0e8a2e7a2f2
:103a9000e792af74031222cbe4f085328285338340
:103aa0001220737404122277d083d08222c0e0c027
:103ab000d075d018c092c082c083c0f0121b84128f
:103ac0003a5a90060f12207fe58955ab900613f005
:103ad000e580900616f0900613e0f4f5899062d028
:103ae000e0f8a2e15027900613e0a2e5501f53ab87
:103af000df9062d0e0a2e0e433900619f090061364
:103b0000e0c2e5f07b307a0079061239e5900613c1
:103b1000e0600e7b007a0079061239e57900121b0d
:103b200090c2c5d0f0d083d082d092d0d0d0e03235
:103b3000c0e0c0d075d008c092c082c083c0f0126f
:103b40001b84123a5a90060f12207fe58a558df891
:103b5000900614f0e590900617f0e8f4f58a7b01e2
:103b60007a0079061239e57901121b90c2eb80b315
:103b7000c0e074f01224639061a9e06017c2afe561
:103b800089f8e5abf975ab00e4f090624bf08889f9
:103b900089abd2af90061ee0640f7012e5c7f890b3
:103ba0000368e0f5c790ff1ce0f4f5ae88c7e5bbfd
:103bb000f9e5bafaf521e9f52290061ee0641060f5
:103bc00003023c637c007404782112223fe5c7fda8
:103bd000900368e0f5c790ffc5e0f8a3e0f98dc752
:103be00074ff68700374ff69700478217905e5211a
:103bf000c398f521e52299f5227403782112224e0b
:103c0000a821a9227a12fb1221ce8922e82401f5eb
:103c100021500205227401782112222fa821e8c325
:103c20009405a2d265d03350031c800ce8c39428bd
:103c3000a2d265d03340010cecf912169890061e02
:103c4000e4f090091ce0f4603f90060ce0fb900665
:103c50000be0fa90091ce0f9121b9c90091c74ff00
:103c6000f08025e025e0f8e433f9741f28f582742c
:103c70000639f583eaf0a3e522f090061ee0241051
:103c8000fb7a0079061239e5e5a8f8c2af9004d7af
:103c9000e0c2e2f0753400e8a2e7a2e792af7f024b
:103ca0000224cac0e0c0d075d018c092c0f0e5d1df
:103cb000f875d100c2c0a2e350097b037a007904f1
:103cc0001239e5d0f0023b29c0e0c0d075d010c059
:103cd00092c021c022c082c083c0f05392fe9007e0
:103ce00015123de3602a9006d0e0700c7401f07b61
:103cf000007a0079041239e5ee900715f0e5c1c0ad
:103d0000e074172521f582e43407f583d0e0800bb9
:103d1000e5c4a2e650069006cf7401f0023dd2c081
:103d2000e0c0d075d010c092c021c022c082c08334
:103d3000c0f0c2e95392fe9006d2e0fa9006d1e0bc
:103d40009a543ff8602974d32af582e43406f58347
:103d5000e0f974012a543f9006d2f089c19007130c
:103d6000e06870197b027a0079041239e5800ee56b
:103d7000a8f8c2af9004d7e0c2e3123e518053c00e
:103d8000e0c0d075d010c092c021c022c082c083d4
:103d9000c0f05392fe90079f123de3602990075aae
:103da000e0700b7401f07b00fa79041239e5ee90b3
:103db000079ff0e5f9c0e074a12521f582e43407fe
:103dc000f583d0e0800be5fba2e65006900759741e
:103dd00001f0d0f0d083d082d022d021d092d0d0a8
:103de000d0e032e0f52174012521543ffea3e06ebe
:103df00022c0e0c0d075d010c092c021c022c082c5
:103e0000c083c0f0c2ea5392fe90075ce0fa9007cc
:103e10005be09a543ff86029745d2af582e4340728
:103e2000f583e0f974012a543f90075cf089f9901a
:103e3000079de06870197b027a0179041239e580e8
:103e40000ee5a8f8c2af9004d7e0c2e4123e51805c
:103e500081f0753400e8a2e7e433f9e8a2e792af15
:103e60002203060302020303020602030301050202
:103e7000020100010101010000030200000500022f
:103e800007070002030101010806060503040401f7
:103e9000030602020202010f0008030505020701e2
:103ea00001090101020101020000000302020105f3
:103eb00005020101030500010003010000000101ea
:103ec0000404020302040104010074f01222f974d4
:103ed000f0122261e5c7f528900368e0f5c7752167
:103ee0001075220078211225417cdd7d03740212b9
:103ef00022e7121cec740212227778211225417cf1
:103f0000007d007add7b03121cf2740212227775a9
:103f10002100805a852182a882e875f06fa4faab4f
:103f2000f0900365124063246ef582e43bf583e074
:103f3000a2e050387f008f82ac82e875f037a4fa97
:103f4000abf09003d31240632cfae43bfbea241a53
:103f5000f582e43bf583e0fa74dd2cf582e434036a
:103f6000f583e04af00fefc3941040ca0521900397
:103f700064e0f8e521c398409b752100852182a863
:103f80008274dd1268363403f583e0fa8532828567
:103f90003383e5821268363583f583e06af00521c4
:103fa000e521c3941040d5752100852182ae827f22
:103fb00000124052a3a3a3a3a3a3a3a3e0f812401b
:103fc00052e048f52260778f27e522a2e0505c7529
:103fd00023018f24e527782312224ea82374dd2e97
:103fe000f582e43403f583e05860047901800279b6
:103ff0000074e52ef582e43403f583e0586004e9ab
:10400000d2e1f98e238f247403782312224e852760
:1040100025e5232525fae43524fb74a02af58274ce
:10402000f73bf583e0fa7b00121b7e0527e522c3f0
:1040300013f522e527c394085004e522708b05216f
:10404000e521c394085003023faa8528c7741002d3
:10405000451a853282853383e5822ef582e43583e5
:10406000f5832212406722e02afaa3e03bfbea2212
:1040700074f61222f9e975f037a4faabf012130eb8
:104080009003d3126863e5c7ff900368e0f5c7901b
:10409000f79e125d57e4c39af521741f9bf52278b1
:1040a000211225417c007d00121cf274021222773d
:1040b0008fc779087cd57d037a007b00121848e908
:1040c0006408601b75210875220078211225417c47
:1040d000007d007ad57b03121cf2740212227780d5
:1040e0000e85328285338312253574021222777f42
:1040f000020223d174f01222f974fe1222921225c8
:104100002d8a278b2812642f0592a385822185830f
:1041100022125d57ea4b60158e828f83a3a3a3857d
:104120008223858324c3e09aa3e09b50087901127f
:1041300014ac02421d05929007ea1225547b070534
:10414000921264271219d474041222778e828f83fc
:10415000a3a3a3a3a38582258583268e828f83e0d4
:1041600014604a14606414602c14600d147003020f
:10417000420324fe607d02421d852384852485053b
:1041800092122558852182852283059212423a1285
:1041900013620242167825122541852384852485e1
:1041a00005921225581242271213568016782512ae
:1041b000254185238485248505921225581242279e
:1041c00012132c7404122277805a7825122541ee9e
:1041d0002417f584e43ff58505921225588523843c
:1041e00085248512255812422712131a74061222aa
:1041f000778031ee2417f582e43f127764e523459a
:1042000024700812423412135c801978231225415d
:1042100012423412133274021222778007aa27ab9b
:10422000281217fa0268edee2415f582e43ff583b3
:104230000592e0f9852182852283125ae8aa27abec
:10424000282274f61222f974fe12229212252dea07
:10425000feebff89211264251219c81248b5242ae1
:104260001253cce060220592e024fd600c24fc7027
:1042700014740765217011800c740a65216006743e
:104280000165217003752100e4439201f00592f06d
:10429000900363e0f522ac21eefaeffbe0f9121b8c
:1042a00048900363e065226005a9221213f20240e0
:1042b000e174f61222f9e9ff8c218d22900363e06c
:1042c000fe7821122541740c1222cbe0fdeffc9008
:1042d0000363e0f9121afa7402122277900363e082
:1042e0006e6005eef91213f20240ef74f21222f939
:1042f00074fe12229212252d8a258b2612438c12cf
:1043000019c8900363e0ff858482858583a3858235
:10431000238583247821122541eefd7c04852382a8
:1043200085248312443a121afa74021222779003f7
:1043300063e06f6005eff91213f2e5842417f8e4e7
:104340003585f988828983e02ef0a3e03400f0748b
:10435000166e701788828983c3e09416a3e09400d8
:104360004009aa25ab261214a6801979008523825c
:10437000852483125d571214ace40592f0aa25ab94
:10438000261217fa853282853383801c8c218d2278
:10439000e9fe1259dd7b07900363e0fa790122857b
:1043a00032828533835392fe1225357402122277ae
:1043b0007f060223d174f41222f974fe12229212a3
:1043c000252d8a238b2412438c1219c80592e0f8fc
:1043d000740768700feef9ac21ad22aa23ab24124a
:1043e00014b8804d740a680592900363700fe0ff63
:1043f000eefcaa21ab22e0f9121b00801de0ff7841
:1044000021122541eefd7c00858482858583a312df
:10441000443a121afa7402122277900363e06f6032
:1044200005eff91213f2e40592f0aa23ab24121758
:10443000fa8532828533830261d01277a5900363b7
:10444000e0f92274f01222f974fe12229212252d44
:1044500074fe1222618a278b288a828b83a3a3a3ee
:10446000a3a3a3a3a3a38582258583261264251273
:1044700019c8852782852883a3a3e024faf523128f
:1044800048328525848526850592a3853282853329
:1044900083059212480c7e00804e900363e0ffe596
:1044a000842402f521e43585f52278211225417412
:1044b000fe29fd7c0385848285858312443a121a85
:1044c000fa7402122277900363e06f6005eff9122d
:1044d00013f2852582852683e0f5212efee58425cd
:1044e00021f584e43585f585852582852683e0f9e7
:1044f000eec3952340a48921e523c395211247fdee
:104500001248411214a60268e81222778532828589
:1045100033835392fe12253574021222777f0802ec
:1045200023d174f01222f974fe12229212252d74f6
:10453000fe1222618a238b24ea2409f8e43524122e
:1045400064191219c8852382852483a3a3e024fa61
:10455000f5221259d9858427858528e527242af54f
:1045600082e43528f5837401f012689564017004c3
:104570007e0280027e107521008010e06f6005efe2
:10458000f91213f274022e2521f521e521c395229b
:10459000505a5392fe900363e0ffa8218532828532
:1045a000338312633f3400f585eef5257825122517
:1045b00045e5842403fce43585fd12462d059290e3
:1045c0000363e0f9121b127401122277e99003636e
:1045d00070a9e06f6005eff91213f2852782852834
:1045e00083e4f0aa23ab241217fa803e852221e54a
:1045f0002124fef8e434fff98e21e8c39521f8e97f
:104600009400f98532828533835392fe12627924b5
:1046100001f8a3e03400f98527828528830592a359
:10462000125f13aa23ab241214a60268e80592a312
:10463000e0faa3e0fb2274f01222f974fe12229237
:1046400012252d74fe1222618a278b28ea2409f88c
:10465000e435281264191219c8852782852883a396
:10466000a3e024fbf52112537205929003d3125854
:104670004a858225858326e525242af582e4352688
:10468000f58374010592f07f00800de06e6005ee09
:10469000f91213f274042fffefc39521505beff86a
:1046a000853284853385125efc8582848583850509
:1046b00092900363e0fe7522027822122545e525db
:1046c0002417f523e43526f52478231225411248d2
:1046d0001b121b0c7403122277e990036370ace089
:1046e0006e6005eef91213f2852582852683e4f0cb
:1046f000aa27ab281217fa802ca82185328285338d
:10470000831262733400f9e824fef582e934fff580
:1047100083124858852582852683a3125f13aa2712
:10472000ab281214a60268e874f01222f974fe1283
:10473000229212252d74fe1222618a278b288a82ea
:104740008b83a3a3a3a3a3a3a3a3a385822585836c
:10475000268a828b83a3a3e024faf5211264251212
:1047600019c812483285328285338312480c7f0083
:104770008012e06e6005eef91213f285258285261f
:1047800083e02fff852582852683e0f8efc39521fe
:104790005056e5252ffae43526fb8a828b83a385c4
:1047a0008284858385900363e0fe74fc28f522787b
:1047b00022122545ea2405f523e43bf5247823124b
:1047c000254112481b121b0c7403122277e9900337
:1047d00063709fe06e6005eef91213f2126e71aa1b
:1047e00027ab281217fa80128823e521c3952312dc
:1047f00047fda3a31248411214a60268e8f895e009
:10480000f9e52528f582e52639f583221277062475
:104810002af582e438f5837401f022858482858547
:1048200083a3a3125856faa3e0fb0592900363e01a
:10483000f922125c15853282853383e8f0a3e9f012
:1048400022a3124858853282853383126e67e8f0be
:10485000a3e9f0aa27ab2822e02401f8a3e0340062
:10486000f92274f61222f974fe12229212252d12e8
:1048700013f2e970047a86801f1248b52416f58475
:10488000500205850592e0a2e040047a8180091279
:1048900017f4ea4b70067a827b01800d0592e0c224
:1048a000e0f012136e7a007b0085328285338353e9
:1048b00092fe0240e71259dde5842274f21222f9d9
:1048c00074fe12229212252deafeebff8c258d2616
:1048d0001213f2e970047a868012124c1960047a7d
:1048e0008180091217f4ea4b70067a827b018030ce
:1048f00074101222cbe0f8c3941450048822800371
:104900007522148525238526247823122541a92282
:10491000eefceffd12135074021222777a007b0036
:1049200002439f74f01222f974fe12229212252d76
:104930008a278b28ecff1213f2e970047a8680250f
:10494000124c1960047a81801cefa2e04005c394e8
:104950000450047a80800e1217f48a258b26ea45cb
:104960002670067a827b018034efc394165004efe0
:10497000fe80027e16740a124aa71225547b070590
:10498000921264271219d47404122277eef9ac271c
:10499000ad28aa25ab261213447a007b0002450cf1
:1049a00074f01222f974fe12229212252d8a258ba0
:1049b00026ecfeedff74141222cbe0f521c3941314
:1049c00050191213f2e970047a868021124c196092
:1049d000047a818018e525452670047a80800e12bd
:1049e00017f48a278b28ea452870067a827b018093
:1049f0004d74080592f0a3e525f0a3e526f0900795
:104a0000ea1225547b0705921264271219d4740404
:104a100012227774121222d505921225588e238ff6
:104a20002405927823122541a921ac25ad26aa2779
:104a3000ab2812133874041222777a007b000245e7
:104a40000c74f41222f974fe12229212252d8a227d
:104a50001213f2e970047a86801a124c1960047af3
:104a60008180111217f48a238b24ae23af24ee4fda
:104a700070067a827b01802c7409124aa712255491
:104a80007b0705921264271219d47404122277e569
:104a9000226004790180027900eefaeffb12133ee6
:104aa0007a007b000261c70592f0a3e4f0a3f090c6
:104ab00007ea2274f01222f974fe12229212252db6
:104ac000eafeebff8c278d281213f2e970047a8638
:104ad000801f124c1960047a818016ee4f70047aa0
:104ae00080800e1217f48a258b26ea452670067af6
:104af000827b01805474121222cbe0f8c3941450cc
:104b0000048821800375211474060592f0a3eef049
:104b1000a3eff09007ea1225547b07059212642751
:104b20001219d47404122277852723852824782328
:104b3000122541a921eefceffdaa25ab2612134a4e
:104b400074021222777a007b0002450c74f4122260
:104b5000f974fe12229212252deafeebff1213f2d7
:104b6000e970047a86801a124c1960047a818011e7
:104b7000ee4f70047a8080091217f4ea4b70067abf
:104b8000827b01802a7407124c14eef0a3eff085ab
:104b90008482858583a3a3a3eef0a3eff0e58424ac
:104ba000171253cce4f0a3f01214a67a007b000293
:104bb00061c774f41222f974fe12229212252deab2
:104bc000feebff1213f2e970047a86801a124c1978
:104bd00060047a818011ee4f70047a808009121788
:104be000f4ea4b70067a827b0180267405124c141d
:104bf000a3a3a882a983eef0a3eff0888289831291
:104c000056940592a3e8f0a3e9f01214a67a007b6b
:104c1000000261c7124d7da3221259dd0592e022e8
:104c200074f21222f974fe12229212252d8a218b1f
:104c300022ecfeedff1213f2e970047a8680121264
:104c40004c1960047a8180091217f4ea4b70067ad5
:104c5000827b01801d7404124c14e521f0a3e5222f
:104c6000f00592a3a3a3eef0a3eff01214a67a002e
:104c70007b0002439f74f01222f974fe12229212fa
:104c8000252d8a278b288c258d261213f2e9700496
:104c90007a86802e124c1960047a81802574141251
:104ca00022cb0592e0ff74026f600974106f6004fc
:104cb0007a80800e1217f48a238b24ea452470062a
:104cc0007a827b01803474030592f08f2175220073
:104cd0000592782112254174141222cb124da6128e
:104ce0001cec7402122277124d898584828585839b
:104cf000124d971214a67a007b0002450c74f01234
:104d000022f974fe12229212252d8a278b288c25d7
:104d10008d261213f2e970047a86802e124c1960e7
:104d2000047a81802574141222cb0592e0ff74026c
:104d30006f600974106f60047a80800e1217f48a15
:104d4000238b24ea452470067a827b01802c8f21f4
:104d5000752200782112254174141222cb124da61f
:104d6000121cec7402122277124d897401124d7dcf
:104d7000124d971214a67a007b0002450c0592f0a2
:104d8000858482858583059222e5842415f582e455
:104d90003585f583eff022124e5be525f0a3e5267d
:104da000f0aa23ab2422125ae8e5842405fae4355c
:104db00085fb2274f01222f974fe12229212252d24
:104dc0008a278b288c218d221213f2e970047a86af
:104dd0008029124c1960047a81802074161222cb2b
:104de0000592e0ffc3941140047a80800e1217f4fc
:104df0008a258b26ea452670067a827b01805974c3
:104e0000121222cb125694e5842417f582e43585dc
:104e1000125f1174020592f0e58424151253ccef51
:104e20000592f08f23752400782312254174161201
:104e300022cb124da6121cec7402122277858482ba
:104e4000858583124e5be521f0a3e522f0aa25ab10
:104e5000261214a67a007b0002450ca3e527f0a3d6
:104e6000e528f00592a3a3a32274f11222f974fe9f
:104e700012229212252d74fc12226174021222cb8e
:104e8000126863e5c7f527900368e0f5c77402125e
:104e900022cb127715853284853385e5820592f021
:104ea000a3e583f0853282853383059212689bfaed
:104eb00074021222cb0592e02a124fff059290f75e
:104ec0009de0f525ff741dc39af5268e228e218064
:104ed000080522efc313ff052190f79ce0fce521b4
:104ee000c39c5043eec39526503d12501070e8ef1e
:104ef000a2e050dfa3a3a3a3a3e0640270d37523b1
:104f0000027524007823122541125adde5842ef81b
:104f1000e43585f9e82402fae439fb121cec74024a
:104f20001222770e0e80acee601385848285858315
:104f3000a3ef6004740280027403124fe8e522704c
:104f400003024fe08532828533835392fe12689bc1
:104f5000f8741dc398fa95e0fbc3ea9410eb940033
:104f6000a2d265d033407974021222cb0592e02898
:104f7000124fffaf258e218006efc313ff0521e5f9
:104f800021c39c5041e526603d5392fe12501070a3
:104f9000ecefa2e050e3a3a3a3a3a3e0641070d9b5
:104fa0007523108e247823122541125adde58424be
:104fb00002fae43585fb121cec74021222777e1093
:104fc00074ff2522600e8584828585835392fea31b
:104fd00074068009858482858583a37407124fe84f
:104fe0008527c77404026f7cf074012ef80592f0d7
:104ff00008853282853383059212689f28f022f556
:1050000084a3e03400f5850592a3a3a3a37e002228
:1050100090f796127751e52175f006a4faabf0e807
:105020002afae93bfb8a828b83e02274f01222f990
:1050300074fe12229212252d74f912226185328299
:10504000853383ecf0a3edf08a278b28e9fe7522e7
:1050500000126e718a828b830592a3a3a3a385821b
:105060002385832474026e600caa23ab24121a04d5
:10507000e960027e0274191222cb126320741005bb
:1050800092f074026e600302510f8523828524839f
:105090000592125694e8700374286970567f007464
:1050a000191222cb126320740a0592f0e5c7c0e002
:1050b00074041222cbd0e00592f0900368e0f5c7ab
:1050c000126e71059290f79ce0f526f582ac828510
:1050d0002782852883126f73500302524a852782e4
:1050e000852883a3a3125d57c3ec9ae49b50258cbb
:1050f000258024740168700374286970047f01801e
:105100009e740368700374286970047f028090792c
:1051100000025257eaf525e814f5218012740212b4
:1051200022cb127712e521f0a3e4f015210521e549
:1051300021c39525400302523b1256917405122259
:10514000cb125f13852182a8827900e875f006a44e
:10515000faabf074051222d50592e02af582a3e09d
:105160003bf583ac82ad830592e06f70c0852282ef
:10517000aa828532848533850592e02a12583e74ce
:10518000021222d5e5820592f0a3e583126e09e0b2
:105190002404f527126895f5236009e52765236047
:1051a0000302523b852723ea126df7400302523b6c
:1051b000e527f0eaf522e8240108500109740212fb
:1051c00022cb0592126320e80592f0a3e9126e0942
:1051d000125ad41225418c828d83a3a3a312770c7b
:1051e0001222cb126e31121cec740212227780292b
:1051f000e52175f006a4f8a9f074051222cb5392ac
:10520000fe125f19f8700302511d740168700302e9
:10521000511de86f700302511d0521e521c395263c
:1052200040cee5266521600302511d74021222cb97
:1052300012771274fff0a3f002512de522600b7477
:10524000191222cb5392fe126e7774041222cb53a2
:1052500092fee0f5c7a922740702450974f71222ed
:10526000f974fe12229212252d1243921219c805ca
:1052700092e0f8740668600a74086860057409684a
:10528000701ce41253c37c0012462d0592e0f91203
:105290001b48900363e06e6005eef91213f20262a0
:1052a000f474f21222f974fe12229212252d8a252c
:1052b0008b26ecffedfeec24010ce43400fd121310
:1052c000208a848b8574101222cb125ae4ec4d7024
:1052d0001deff9121596e9fec3941540027e147d68
:1052e00000eefceff9aa84ab851215ae801aeec36e
:1052f000941540027e148e217522007821122541da
:10530000121cec7402122277eef9aa25ab261213b6
:10531000260243848532828533830262fd74f7124c
:1053200022f974fe12229212252d8a848b85125343
:105330005f60237b081264271219c812535ffae4d6
:10534000f0900363e0fef9121b06900363e06e60c9
:1053500005eef91213f2aa84ab851217fa80b51282
:1053600053729003d3e028f8a3e039f9e81270995a
:10537000e0221253762212537a22900363e075f0f2
:1053800037a4f8a9f02274f71222f974fe122292bf
:1053900012252d124c19640b6026e5842419125332
:1053a000cc74010592f01259d9740b05921253c3b3
:1053b000f9121b42900363e06e6005eef91213f2de
:1053c0000262f4f00592900363e0fe22f582e43578
:1053d00085f5832274f01222f974fe1222921225ae
:1053e0002d74fd12226174011222cbecf0a3edf0ba
:1053f00089258a228b277a817b01e52275f006a414
:10540000f8a9f090f796126c2bf5850592a3a3a34b
:10541000e0f582a3e0f583858284858385a3e0851a
:105420003284853385f00592e0f52875210074fffc
:105430006525600785252180020521900364e0f839
:10544000e521c3984003025566852182a882e8754c
:10545000f06fa4fcadf09003651256a2e584246eb3
:105460001253cce0a2e050d1e8900363f0900361c6
:10547000e584f0a3e585f0853282853383e013135c
:1054800013541ffee05407f526e528a2e4503de83a
:1054900012556bf8ed39f91261dda826b8000280cb
:1054a00004c313d8fca2e050231217f4ea4b606146
:1054b00074011222d50592122558ad27ac22791b12
:1054c00012153674021222777a007b00e528a2e5d5
:1054d000400302555d900363e012556bfced39fd0e
:1054e000ec2422f582e43df583e0ac26bc0002808a
:1054f00004c313dcfca2e0506412536260047a819e
:1055000080111217f48a238b24ae23af24ee4f7040
:10551000067a827b01804f05929007ea1225547b20
:105520000805921264271219d474041222777401a8
:105530002522c0e01261e8127099d0e0f0740112e7
:1055400022d50592122558ad27ac22791deefaef2f
:10555000fb12153674021222777a007b0074ff6505
:1055600025700302543974030268ea75f037a4f811
:10557000a9f09003d3e02efca3e03400fdec282238
:1055800074f01222f974fe12229212252d89218cb8
:10559000278d2875220074121222cbe0fea3e0ffb3
:1055a0008e828f83e0f525e5c7f524125865f52630
:1055b00090f79ce0f8e526c39840097522018e8299
:1055c0008f838023e526125d3770098524c77a888a
:1055d0007b018049a926121596e98e828f83f0c33c
:1055e00095215007752207e4f08022a821e0c39896
:1055f000f0f8c39525500488238003852523e523ef
:10560000f0ad21fca926aa27ab281215ae8524c728
:10561000e5226005fa7b0480047a007b0002450cd9
:1056200074f61222f974fe12229212252deaf8ec79
:10563000faedfb752100e5c7fe900368e0f5c7e8c9
:1056400014fd740c1222cb12569490f79ce0fcede2
:10565000c39c400b75210188828983e4f0801eed94
:105660001256980592e0fca2e75004741080027470
:1056700002888289830592f0ecf9121a108ec7e530
:1056800021a2e05005fa7b0480047a007b000240ee
:10569000e190f7961277512275f006a4fcadf090d8
:1056a000f796e02cf584a3e03df5852274f61222ee
:1056b000f9e9ffeaf8ebf9e5c7fe900368e0f5c702
:1056c000740a1222cbe0fbc3941540067a807b015a
:1056d000801690f79ce0c398e49950067a017b0409
:1056e00080061aeff91215488ec70240ef74f012c7
:1056f00022f974fe12229212252d74fe1222618567
:105700003282853383ecf0a3edf089257e001258b8
:105710005ff52290f79ce0c39522500302582fe5d5
:105720002275f006a4f8a9f0059290f79612584a4f
:105730008582278583280592a3a3e0fc24fa600aca
:1057400014600724fb600302582d74141222cbe06e
:10575000f521740c6c700302581385278485288505
:105760000592a3a3a3e0f582a3e0f583852584aa8f
:1057700084858284858385a3a3a3a3e0f885212360
:10578000ea2523f523e43400f524e89523e4952461
:10579000c365d03350057e0d0258300592a3a38512
:1057a0008284858385852182a882790074066c882d
:1057b0002389247823701b12254174021222cb12f4
:1057c0005851faa3e03400fb121cec740212227749
:1057d000803112254174021222cb12585112583ec8
:1057e000aa82ab83121cec7402122277e5212525d4
:1057f000c0e0852782852883a3a3a31268aad0e0ee
:105800000592f08527828528835392fea3a3e06446
:105810000c700b853282853383125ae480047c003d
:105820007d00ab21aa2279ff12154880050e0e0ecd
:105830007f048526c7eefaeffb7402024509f58264
:10584000a3e03400f5830592a322125f0639f583a5
:10585000221258562a22e0fca3e0fd0592e0227fa6
:1058600000e5c7f526900368e0f5c7ea142274f452
:105870001222f974fe12229212252d8c848d85e954
:10588000ffe5c7f521125865fe90f79ce0c39e50d6
:105890000479018034740e1222cbe0f52260047a80
:1058a0000280027a80eef9121590e9701ce4f5236b
:1058b000f5247823122541ad22effcaa84ab85eeb6
:1058c000f91215a874021222778521c70244317497
:1058d000f31222f974fe12229212252d8a218b22b4
:1058e0001259d98a828b83a3a3a3a3a3a3a3a3a39f
:1058f000e0700f125aee1215fcea4b60781217fa9c
:1059000080f1e5c7fe900368e0f5c7e584242bf538
:1059100023e43585f524852382852483126413606e
:105920005288828983a3a3a3a3a3a3a3a3a3aa8228
:10593000ab83e0ff8a848b850592a3a31225587d53
:1059400001888289830592a3a3e024f7fcea24045a
:10595000fa50010b74ff2ff91215a8740212227766
:10596000e9f525aa23ab241215fc1217fae52570d8
:105970002e80a38ec7852182852283a3a37405f080
:10598000852182852283a3a3a3a3a3a3a3a3741920
:10599000f07900aa21ab22121326802a1217fa12dc
:1059a0005aee1215fcea4b70f3e525f52378231225
:1059b00025458f23ac237d007918aa21ab22121331
:1059c0007a740112227785328285338312253574e9
:1059d000021222777f050223d11259dd221253765b
:1059e0009003d31259e722e028f584a3e039f58526
:1059f0002274f41222f974fe12229212252d8a8446
:105a00008b85858482858583a3a3a3a3a3a3a3a356
:105a1000a3ae82af83e5c7f521900368e0f5c78e9a
:105a2000828f83e014f990f79ce0c39950217401b0
:105a3000f52178211225458e828f83125ae479163a
:105a4000aa84ab8512137a74011222770244317a48
:105a500002121590e970d91217f48a238b24ae2311
:105a6000af24ee4f8521c7700c7a017b0090032e86
:105a70007408022132ac84ad85125aee12160285ea
:105a80008482858583a3a3858221858322125ad4ab
:105a9000122541e5842404fce43585fdee2404fa56
:105aa000e43ffb121cec74021222778521828522ce
:105ab00083e08e828f83a3a3f08e828f83a3a3a320
:105ac000a3a3a3a3a37417f07900eefaeffb1213bc
:105ad00026025a4ce0f5237524007823228a828b13
